:020000042000DA
:1000000000980020A5040020AD040020C5040020B5
:1000100000000000000000000000000000000000E0
:10002000000000000000000000000000DD040020CF
:100030000000000000000000F5040020F70400208C
:10004000392F0020173000200D310300053000202B
:100050009B2F00208D3103002930002037300020F5
:10006000F90400204122002077300020AD31030048
:1000700057810200032A0020F9040020F90400201F
:10008000F9040020F9040020F9040020F9210020DF
:10009000FD2100200122002005220020092200204D
:020000042000DA
:100160003200000001080020D32B0020BB34002007
:10017000000000000000000063800200BD8002005B
:10018000710C0020FB800200198102003581020001
:100190005D8102007D2D0020ED0C00205D0C002013
:1001A000670C002000000000000000003F0000007D
:1001B000F48B002000040000740B080048010000CC
:1001C0006807080000040000C80C080020050000B3
:1001D000000000002000000048000000580000005F
:1001E0006800000004010000160100002801000062
:1001F0002E010000202A00008E2E000001000000C9
:10020000881300005D2C0020E9600200FD930200CD
:100210001915002019280300A574020015060020F6
:1002200003000000D5200200193500200400000062
:10023000D74902000F490200D70D00206391020048
:10024000B7910200BF910200078202007182020092
:1002500006690020AD8302009384020041850200FC
:1002600015860200378602005F860200758602004E
:10027000F9870200258902005D8A0200D38C020002
:10028000098D02000F900200438D0200278E0200AC
:10029000F98E0200478F0200D30B0020D58F020099
:1002A00049510200775102002F5202001000000055
:1002B00020030000803E000000000000000000005D
:020000042000DA
:1002C000504600030003983A6400F401B80B000C98
:1002D000B80B120030003000CD009A01120024004B
:1002E00030006400B0001800280012001200D0078F
:1002F0000000FFFF00000000000000000000000000
:100300001F00000244413134353833000000000042
:1003100000000000000000000000000000000000DD
:0403200000000000D9
:020000042000DA
:10034000FFFF010000C201000000000000000000EB
:100350000000F40101000118000805030A18F5FE69
:1003600011072F2A93A6BDD84152AC0B10992EC667
:10037000FEED000000000000000000000000000092
:10038000000000000000000000000000000000006D
:10039000000000000000000000004F54412D4F4CB1
:1003A00045440000000000000000000000000000C4
:1003B000000000000000000000000000000000003D
:1003C000000000000000000000000000000000002D
:1003D0000000000000000000060000CAEA80D0070C
:0403E000064064323D
:020000042000DA
:100440000348854605F092FE00480047C720020099
:10045000009800200F4906200880FF200E49013037
:1004600008600E4988683E2290432E308860002242
:10047000052000070280018A0F231B021943018215
:1004800001210748C90404C1401E0028FBDA62B6F6
:10049000704700000034005080E100E0003300505D
:1004A000FF0B00001548804715480047042071469F
:1004B000084203D0EFF3098012490847EFF30880A0
:1004C0001049084704207146084203D0EFF3098021
:1004D0000D490847EFF308800B490847042071468F
:1004E000084203D0EFF3098008490847EFF308807A
:1004F00006490847FEE7FEE7FEE700005504002036
:10050000410400207905002011050020D90F0020AA
:1005100005221207518A8023194351821349036827
:100520000B6043684B6083688B60C368CB60036972
:100530000B6143694B6183698B61C369CB6108625D
:100540000B48836A4B62C36A8B62036BCB62C36BDB
:100550000B63436B4B63806B8863064908200880FC
:10056000908A800601D500BE7047FEE7001808009B
:1005700000ED00E000330050052109070A8A04233A
:100580001A430A820A8A02231A430A820A894023EA
:100590001A430A811B4B01221A601B4B08221A8046
:1005A0004A8A80231A434A82184A036813614368BF
:1005B000536183689361C368D361036913624369BC
:1005C000536283699362C369D36210631048836A7C
:1005D0005363C36A9363036BD363C36B0B4A4032A9
:1005E0001360436B5360806B9060888A800608D5E7
:1005F00000BE488A012280088000D203104348824E
:100600007047FEE780E200E0003300504018080029
:1006100000ED00E070B516460C460546012802D0F4
:100620000C2D26D10DE006226D496E4805F0B0FD77
:1006300000281ED006226B49304605F0AFFD06208B
:1006400012E0694D29680878C00610D52078202866
:1006500003D200202070042070BD0A7E30463A315B
:1006600005F09CFD2868007E2070002070BD0120F0
:1006700070BD32462146284605F096FD70BD70B526
:100680005A485B49C405228880252A432280594A5A
:1006900053891B0701D4401EFAD2574A012010602B
:1006A0000622504805F07AFD2088A843208070BDBE
:1006B00070B5002405200007018A88B0022291430A
:1006C0000182818A0907FCD5418A20221143418297
:1006D00000F04FF8182101A805F06CFD1F21182229
:1006E000090301A801F0ABFF68460079702803D028
:1006F00068464079522814D104A806223F4905468D
:1007000005F046FD00280CD006223549284605F0A4
:100710003FFD002805D006222946324805F03EFD5F
:10072000012402F049F802F0DBF8012003220090D6
:10073000002312020321022001F00DFD00250126F5
:1007400076022B46324629460220009501F003FD31
:100750000023324609210220009501F0FCFC002311
:10076000324604210220009501F0F5FC204608B035
:1007700070BD7FB5012003252D02009008232A4675
:100780000321022001F0E7FC002407232A4621462A
:100790000220009401F0DFFC06232A4609210220F2
:1007A000009401F0D8FC05230022042102200094CB
:1007B00001F0D1FC0221684601730321417300233B
:1007C000009401941A46194603A8029402F032F8E4
:1007D000FF210131480201F0B5FE01F0F9FF7FBDB4
:1007E000383E0300C0810020C0060800A08601003A
:1007F000D47F0400200000500080004000690020E9
:1008000008B500F080FA052400252407C826684FA3
:1008100009E004216846009505F0D2FC002817D0B5
:1008200000F0E5F914E02089000611D501208007C9
:10083000006B00040CD405F0C9FCC00708D10420EB
:1008400005F0CAFC009005F0CDFC00980028E0D12E
:1008500072B602F063FC042806D002280BD00328ED
:1008600009D0012816D016E052480078012801D09E
:10087000032000E0022000F011F8A08A800602D5D3
:100880004D490820088030BF4C480169042291433B
:10089000016100E030BF62B63E80C4E7F8B50446AF
:1008A0006846052504702D07288A042108432882FC
:1008B0004348444FC0690126012811D9032C18D19F
:1008C00005F096FC002814D005F098FC002810D004
:1008D000032005F099FC00280BD00220387009E0B5
:1008E000032C06D1032005F08FFC002801D03E70B8
:1008F00000E0022468460470204600F023F800203F
:100900003149022C087001D0032C1AD12F494A8892
:10091000FF2301339A434A806A882D4B1A804A8804
:1009200032434A8000900099491C00911429FADB57
:10093000698989088900491C698169894906FCD54A
:100940006880F8BD10B5022801D0032828D11B49C2
:100950000B69042213430B61052109074B8A2024EC
:10096000A3434B820B8A022423430B8210230228C9
:10097000488A16D0104348827F220888920180243A
:10098000204308800020401CC0B20A28FBD3488ABC
:10099000184348820F48521E42610888A0430880CD
:1009A00010BD10434882488A9843488210BD000019
:1009B00000310050540208000033005000ED00E008
:1009C000E0010020C406080035820020200000500D
:1009D00036820020008000407047000045480178C2
:1009E000002902D0802141707047434900200870DF
:1009F0004249C87070473F480178002902D08121E0
:100A0000417070473C49012008703C49C8707047EC
:100A100038480178002902D082214170704700BE19
:100A200035490220087035490120C87070470028F8
:100A300004D0012803D0022802D1E9E7CEE7DAE7A3
:100A400070472D4900200978002904D0012903D0DE
:100A5000022900D102207047012070472548817883
:100A6000002904D0491E0906090E817017D1427869
:100A70000021002A04D09207920F0270417004E016
:100A80000278002A01D0521E02701206120E017066
:100A900005D0012A02D0022A01D1B9E7ABE770479D
:100AA00000B5144A9078401C90701078002805D149
:100AB000FFF7C7FF431CFFF791FF137000BD0D4800
:100AC000C07870470020EFF31081012282F3108874
:100AD000052212071289120605D40948028901234A
:100AE0001A4302811846002900D0012181F31088A1
:100AF00070470000C781002054020800C6060800A5
:100B00000033005070B50520000701893022914361
:100B100001810189802211430181018989088900AD
:100B2000491C01810189082319430181B1490C88BD
:100B300014430C80448A9C43448205894024254305
:100B40000581058A0426B5430582858AAD07FCD553
:100B5000A94E002575600E8801252E430E804D8913
:100B6000AE05A64D0E8801D52E4300E0AE430E80A3
:100B70000D887826B54328350D800D880626354327
:100B80000D80458A1D4345820B8893430B80028963
:100B9000A24302814889800503D59649052060312A
:100BA0008880012080070168821591430160944884
:100BB00001683F2252029143421489180160016882
:100BC00002031143016070BD10B58E4805F022FB91
:100BD00010BD70B5874C6088C006050F05F020FB7E
:100BE00061881E2291436A001143618070BD70B517
:100BF00085490120C863C86B0028FCD1012080070B
:100C0000C169824800220368994200D202607A4C8E
:100C1000012663787E4D002B04D06270016005F0E0
:100C200005FB11E0026819238A1ADB019A4214D3EA
:100C3000016005F0FBFA2988884201D9411A00E0D9
:100C4000091A89B2182908D32880012005F0F4FA7E
:100C500005F0F8FA002800D1667070BD08B505F0FF
:100C6000F7FA009008BD08B505F0F8FA009008BD45
:100C700008B5684901204A695206D20F13D04A6963
:100C80009206D20F0FD000220A610092FF225F323B
:100C9000009B5B1C00939342FAD34969C907C90FB3
:100CA00002D005F0E1FA002008BD1FB5684601F04A
:100CB000CAFB009805F0DEFA1FBD574B00201978DB
:100CC00000290DD050490122CA63CA6B002AFCD109
:100CD00001218907C969514A1268914201D2012054
:100CE00070470021197070470020704710B54C49BB
:100CF00000200860FFF768FF01208007016B4900B2
:100D00004908016310BDF8B501204349454C0870FE
:100D1000C82626800025658043480827478005F0BF
:100D2000AFFA01F073F90D207901800105F0AEFAF8
:100D3000FFF7BEFC002801D1FFF7A1FC04F088FEFC
:100D4000012005F097FA01F0A7FEFFF7DBFE042073
:100D500000F049F8072000F046F80A2000F043F8B8
:100D6000062000F040F80B2000F03DF8012000F0D4
:100D70003AF8022000F037F8002000F034F82B4851
:100D8000006805F089FA00F0A8F800F0E1FF00F033
:100D9000D0F901F086F8012080070168821511431F
:100DA0000160FFF782FFFFF719FE03F007FB04F075
:100DB00081FEFFF79BFF05200007C5820D4948888B
:100DC000E0229043A0304880012005F06BFA268095
:100DD00015484780F8BD164910B5884200D000BEBE
:100DE00005F066FA10BDC106C90E01208840114900
:100DF0000860704720000050CC81002000100000E7
:100E000000020040E2040000C00000407C04080032
:100E10007804080000100050C681002014760020DD
:100E20008C03080000310050003300500490002073
:100E30001111111180E200E0FEB5784D01911746C5
:100E40001E4600240090294605F038FA050005D01A
:100E500033463A4601990098A84704462046FEBD0D
:100E6000FFB581B01F460E464D780C78002005F086
:100E70002BFA042824D000281DD121E06848816E77
:100E80002E206043091888880207120F130005F00E
:100E900021FA070505050F050F050F008204920EC4
:100EA000062A05D27278012A12D0072210438880C0
:100EB000641C6407640F28466D1EEDB20028DDD166
:100EC0003B463146039A019805F00AFA05B0F0BD99
:100ED000204605F00BFA0020F8E770B5514803787A
:100EE000021D0021504D07E0CC00165D002E01D1FF
:100EF0002418A560491CC9B29942F5D370BD028976
:100F000008894A49101A80B2884201D901207047E5
:100F100000207047FFB586780446300281B00E305D
:100F2000009005F0D1F9002801D0FF2652E0002101
:100F3000442005F0E1F93E4FB5007851442105F019
:100F400039F90121009805F0DDF979590298888076
:100F500079596088C880785922792030417CD2073D
:100F600049084900D20F1143417478590622A11D46
:100F70003B3005F013F97859617940304170785968
:100F800006223430039905F009F979590498203183
:100F9000887602980D281DD0264810230088009AD4
:100FA00081B2254805F0B4F905466088288060794B
:100FB000687228460622A11D0A3005F0EFF8A089C4
:100FC0006880E089A880208AE880A07C2872284672
:100FD00005F0A4F9304679E781692039897F08292D
:100FE00005D2114A89001032515881617047FEE7DD
:100FF0000D4A12493032002008CA401C08C110288E
:10100000FADB01200E49C00608600E49CA691202C7
:10101000120ACA610A498039086070478443030094
:10102000D802080004060800386900203075000066
:1010300054050800600100200138000010840040C1
:1010400080E100E000ED00E070B516460D46104668
:1010500005F03AF900286AD0340A304605F034F930
:10106000012812D0A87A1E2811D029460A310E284C
:1010700046D019DC801E030005F02CF90B255929F8
:10108000592D59315939593E5900022070BD314608
:10109000314805F049F90021204605F04BF90221BD
:1010A000304605F02FF942E018283DD006DC102824
:1010B00019D012282CD0162839D131E0522823D04B
:1010C000D22834D128E0204605F03AF92FE0204616
:1010D00005F03CF92BE0204605F03EF927E02046DC
:1010E00005F040F923E0204605F042F91FE01B4AD5
:1010F0002046126890471AE0204605F03FF916E0B6
:10110000204605F041F912E0204605F043F90EE0D3
:10111000204605F045F90AE0204605F047F906E0CB
:10112000204605F049F902E0204605F04BF9002081
:1011300070BD70B50A480378021D0021094D07E013
:10114000CC00165D0A2E01D12418A560491CC9B235
:101150009942F5D370BD0000012800001C690020F1
:1011600004060800086A0020F7B5074616460198ED
:1011700005F02EF90546C488384605F02FF9401EC3
:10118000844200D2204684B222460B21384605F024
:101190002BF90746002E05D033460A21019A05F0A7
:1011A00029F9FEBD29467C8022460831381D04F00D
:1011B000F5FF384605F024F9FEBDF8B506460020D7
:1011C00000900C464A8801466B46304605F01EF9F1
:1011D000020001D061881EE0608805F01DF900283A
:1011E00017D005890120EAB2002105F01BF90C4B4C
:1011F0000CCB1040194008430BD032020223294681
:1012000008480A3205F084F86188018005F086F804
:1012100004E0618800223046FFF7A6FF0020F8BDF9
:10122000E881002002280000F8B50D46064681003E
:101230002B48EA884458521C20686B89018F294F3B
:1012400051430091014640314A89C989511A8AB2F5
:10125000991A89B2B94214D29A4212D0294605F09D
:10126000E7F82D892049009805F0E8F82818801C37
:101270004034E0823002401C80B2042105F042F884
:10128000F8BD2821304605F0DFF8F8BDF8B5054671
:10129000870013480C46C059C9880068114E0246A1
:1012A00040325389D2899A1A92B28B1A9BB2B342B6
:1012B00011D20B4E8A420ED005F0CCF8F05905221F
:1012C0005F30611C04F06AFF2802401C80B20521D7
:1012D00005F018F8F8BD2821284605F0B5F8F8BD46
:1012E0004C030800FF7F00001027000070B5044683
:1012F000007800250D2801D00A2200E002225A4978
:101300004B7A002B06D00D2804D0637C032B01D030
:10131000432551E0097A8A4339D10D2809D00E2896
:1013200002D00F2803D134E0607C032804D3402589
:1013300042E0607C0328FAD8A07C0428F7D20A296E
:1013400008D0607C012822D0022820D060780328B1
:1013500009D811E005F084F8012806D16078032847
:1013600003D0002801D0492526E005F079F80028AF
:1013700002D160780228F6D83020035D224620464C
:10138000E17C3132143000F019F8054614E04225B2
:1013900012E005F065F8012807D16078052804D12E
:1013A000A01D05F063F80028DDD005F059F80028ED
:1013B00002D160780228D6D8284670BDFFB500203B
:1013C00086B001216A461170044605910021002C67
:1013D00006D0089D099A1F239A4234D9402032E052
:1013E0001C23069D079AF7E76B185E78330004F01C
:1013F00071FF1D2610101010101010101026262638
:101400002626262626262626262610101010101000
:101410002600059B03E06F46FF5CB74204D05B1ECD
:101420005BB2002BF7DA03E0002B01DB4A2006E079
:10143000059B6F46FE54059B5B1CDBB205936B5C02
:10144000491C5918C9B2914201D20028CCD091420E
:1014500002D04A200AB0F0BD641CE4B2022CF9D2DA
:101460000028B3D0F6E700009805080070B5EFF348
:101470001085012080F310882C4804F0FDFF0446FD
:10148000002D1DD0012080F31088002C2DD0204687
:101490004038C08F2649884227D16189208904F0CD
:1014A000F1FF05000ED021461031A3896289208901
:1014B000A847002806D0012817D0022815D105E03A
:1014C0000020E0E7204604F0E3FF0EE0EFF3108594
:1014D000012080F31088154821460C3004F0DEFF0F
:1014E000002D0CD0012080F31088EFF31084012030
:1014F00080F310880D480068002802D004E0002026
:10150000F1E7012004F0D0FF002C03D0012080F38C
:10151000108870BD0020FAE710B5BC21054804F022
:1015200049FE0549012004F0C5FF10BDA8050800CB
:1015300038830000040608006D14002000B502790D
:101540000021130004F0C6FE0C34070735352035A2
:101550003535353527344279042A27D8C2795307DF
:1015600007D05207520F012A03D0042A01D0052ABE
:101570001CD18279002A01D0012A17D1007AC01F1C
:101580000A2816D3062114E04279521E0A2A10D3E3
:10159000082242710DE0407942070AD04007400F0F
:1015A000012806D0042804D0052802D00A2100E032
:1015B0000721084600BDF3B581B001980C46010231
:1015C000CA1D022332480E3104F0A2FE04700199B4
:1015D000054602272F488E00002C06D0042C16D07A
:1015E000062C10D0072C3FD108E08159052249680C
:1015F000897C114069708059C77335E0084604F052
:101600005FFF687030E080590F21C1732CE0044601
:1016100080594068417C012902D1007E01280FD009
:10162000019804F053FF01210028A0590BD0426813
:10163000D07D00281CD001281AD004280DD00FE03E
:10164000002068700DE04068C27D022A01D0042AA3
:1016500006D1007C02280BD102E0107C022807D0C2
:101660006F70A1590320C873284604F057FEFEBDD1
:101670006970F6E701460A780120042A01D90020A2
:10168000704749780029FBD00129F8D17047000044
:10169000021C000028050800FFB589B00D46002097
:1016A0006946059008720B98000A009004F00EFF3E
:1016B00007460B9804F008FE00287DD00B98297887
:1016C000000A8400784E012963D0042904D0062939
:1016D00048D0072968D125E03059C17B032901D0C2
:1016E000042961D1697800291AD040681022A91C08
:1016F00004F054FD002F06D03159C87B032807D0D1
:10170000042808D050E03059C07B032803D04BE0B8
:101710000B20C87348E00521009804F0DDFE43E08B
:101720000120B6E03059C07B0E283DD1009804F06E
:10173000C7FE002103E02A18401C9170C0B2102897
:10174000F9D3688A69460883294606A80822143115
:10175000023004F023FD06ABAA1C3946009804F0C1
:10176000C1FE21E03059C07B0F281DD1AA1C0A21DF
:10177000009804F0BDFE002F04D03946009804F014
:10178000BDFE11E000231A463946009804F0BCFE65
:101790000AE0012F08D10B9804F096FD01281CD017
:1017A000002801D0022005906846007A002811D058
:1017B00002AA0521009800E00CE004F099FE6846BA
:1017C000027A60200243684602720123394600987B
:1017D00004F09AFE05980DB0F0BD3059C07B022888
:1017E000E2D16878002851D002210B9804F08AFDDC
:1017F000305907224068A91C173004F0CFFCE87864
:10180000002804D130594068407C01283AD0009823
:1018100004F080FE002837D0297A009804F080FE7A
:10182000002833D0009804F081FE0121009804F0D4
:1018300083FE00282CD030594068417E00292BD0EF
:10184000042929D0C17E027D1140C17630594068FB
:10185000017F427D114001776846007A0028A7D1B8
:101860003059022142680098173204F041FE305985
:1018700041684031897B002913D004210098FFF78B
:101880009AFE91E7022004E0062002E0082000E032
:101890000320694608728BE70021C1763059406801
:1018A000D9E70B21C1737FE728050800F8B5054685
:1018B000FD49123080B2496E2A2250430C18042090
:1018C0002071241D04F03EFE0090204609300422C1
:1018D0006946064604F062FC04F034FE00900422DF
:1018E0006946601C04F05AFC04F02CFE00900422AF
:1018F0006946601D04F052FCEC4A294696460020D9
:101900004E22EB4BB446514342006646961972781C
:1019100036781202324376463668871C76187F0086
:10192000FF18F253401C0228EEDBE249A8000858D9
:101930000822611C783004F031FC2802401C80B27F
:101940000D2104F0DFFC0D21284604F001FEF8BD56
:10195000F3B5044681B0042004F000FE0246D549E8
:10196000A0000858002A25D00299082270300B31B7
:1019700004F014FC0299204613318C460022CB4B14
:101980004E21CB4E4843550061466F1879783F7819
:10199000090239431F683F18AD197953521C022AB6
:1019A000F1DB20460299FFF781FF2046029904F0FF
:1019B000DBFDFEBD6030C17B490704D50621204612
:1019C00004F0D8FDFEBD2102491C807B8DB20028A9
:1019D00007D07D2252012946B74804F0D1FD0321EA
:1019E00000E00121284604F08DFC0621204604F089
:1019F000CDFDFEBDFFB581B00398070A04F064FC7D
:101A00000646102836D004DC002E37D0082E04D12C
:101A100030E0142E32D0152E0BD0A64CBD006059EC
:101A20006030C07BC00607D53D21384604F00CFD70
:101A300024E0022005B0F0BD04F0AEFD01281DD168
:101A4000032E07D19C48039904F06EFC60590121D4
:101A500060308173605918226030C17B1143C173BB
:101A600060598030007C002804D00721039804F0DE
:101A700049FCDEE738460299FFF76AFF0020D9E704
:101A800010B50C4604F08EFD21888A0089498958DA
:101A90000968002902D0894BC968995010BDF8B572
:101AA0000E461046150A04F00FFCAC00814F0028CA
:101AB00017D0142815D0152809D038596030C07BAC
:101AC000C00606D53D21284604F0BEFC09E00220F0
:101AD00008E004F061FD012803D131462846FFF7F4
:101AE000A3FB002039590968002902D0734AC9684C
:101AF0001151F8BDFFB50F461546110A6D4A880011
:101B0000125881B012681E46002A01D0D46803E042
:101B10006A4A002314581350002C18D0201F428802
:101B2000674B9A4213D10088602810D1204640307C
:101B300002898A420BD18088002808D0A06800283A
:101B400002D0204604F034FD204604F037FD334631
:101B50002A463946019804F037FD6BE7F8B5160AB6
:101B6000544CB5006059174600281CD04030017E07
:101B7000104604F0C7FB384604F0A6FB012802D04B
:101B800006280FD108E061596031C87B020709D5EA
:101B9000F7221040C87305E060598030417C304620
:101BA00004F052FC0020F8BDF0B50646050285B0F1
:101BB000681C009080B2014602903F4804F0B4FBDC
:101BC0000121029804F09EFB04F0E6FC394CB700BA
:101BD0000128E05903D06030C17BE72214E0603077
:101BE000807B002809D07D2252013348029904F0FD
:101BF000C7FC0321029804F085FB304604F0EAFCA0
:101C0000E0596030C17BEF221140C173E059603070
:101C1000C17B4A0711D5FB221140C1730098ED1D0D
:101C200082B225480024A9B204230D3804F070FBC9
:101C30004680047004F072FBFCE60022012130466D
:101C400004F0CEFCF6E610B51046140A04F03CFB96
:101C50000B280CD01749A00008586030C07BC00684
:101C600003D53D21204604F0EFFB002010BD2046A7
:101C7000FFF79AFFF9E770B510460D46140A04F015
:101C800023FB002828D0142826D015281AD009496B
:101C9000A00008586030C07BC00615D53D21204605
:101CA00004F0D2FB18E00000D8020800E001002098
:101CB000300008004C03080024040000F0810020DC
:101CC00038830000022070BD04F066FC012803D1B7
:101CD00029462046FFF7DAFA002070BDF8B507461E
:101CE0001D460E461446104604F0EEFA142806D09F
:101CF0002B4622463146384604F078FCF8BD0020D9
:101D0000F8BDF8B507461D460E461446104604F0C9
:101D1000DBFA142806D02B4622463146384604F01A
:101D20006BFCF8BD0020F8BDFEB5124D01911746C1
:101D30001E4600240090294604F0C0FA050005D094
:101D400033463A4601990098A84704462046FEBD0E
:101D500070B509480378021D0021084D07E0CC004A
:101D6000165D012E01D12418A560491CC9B2994203
:101D7000F5D370BD8C41030004060800286B0020D9
:101D8000FEB5514D019117461E460024009029468C
:101D900004F094FA050005D033463A4601990098BC
:101DA000A84704462046FEBD70B5064614460D46BB
:101DB000104604F089FA240A002836D04348301827
:101DC00006D001281FD00C2821D00E2827D11AE0D8
:101DD0002878002829D03E4DA600A859428E002A16
:101DE00023D041230121204604F00CFCA9590020F6
:101DF0004886A8590068002817D1200201210E301A
:101E000004F080FA11E02878002808D10DE020467F
:101E100004F0FEFB0A2808D12878002801D04121CF
:101E200000E00021204604F0F9FB002070BDF8B569
:101E300015460C46104604F047FA2F0A00282CD00D
:101E4000234DBE00A859408E0D280BD02148A27802
:101E50000088217983B2384604F0E6FBA859408E09
:101E600000280CD02078002819D04123A85901213E
:101E7000428E384604F0C6FBA959002048863846F1
:101E800004F0C6FB012803D04621384604F0C6FB07
:101E900022796188384604F0CDFB0020F8BD00238C
:101EA000E4E7F0B50D480E23021D0B4C0578002128
:101EB00007E0CE00975D9F4201D13618B460491CFF
:101EC000C9B2A942F5D3F0BD28490300F4FBFFFFD6
:101ED0005405080060010020586B0020040608002B
:101EE000F3B50546204980000C582802401C87B2F3
:101EF00081B00026384604F0E7F9152807D195206F
:101F0000005D002803D004F047FB002818D02346CA
:101F10004033988AD98A884200D808464004020C87
:101F200099823946114804F02BFB01219420015578
:101F3000384604F0E7F98034607D002805D101E0DF
:101F40001F26F8E7A07D00280CD000206075A07542
:101F5000022004F003FB002804D029463046029AF0
:101F600004F06EFBFEBD00004C03080023040000DB
:101F700005200007018830221143018001880322D7
:101F800011430180704705200007018830229143EA
:101F900001800188890889000180704730B5A34815
:101FA0000023016DDB43002901D01A4600E0012225
:101FB0009E49026508390C684D680C602A434A60E6
:101FC000426F002A01D01A4600E0012242670C68E5
:101FD00052024D680C602A434A60026E002A01D00A
:101FE0001A4600E0012202660C6812014D680C607E
:101FF0002A434A60C26D002A00D10123C3650A68E2
:10200000D8004B680A601843486030BDFEB5002018
:10201000864E034628220021424392198C00491C17
:1020200013510A29FADB401C0428F3DBFFF7B6FF43
:1020300003F088FC7D4800220838026042601546A3
:1020400000247B486900475A0120A04080B2074223
:102050001CD0282068438019A1004058411C19D089
:10206000002810D0C117224604F0DCF92A0104F040
:10207000D9F96E4B083B1A685B6810436B4A1943E9
:10208000083A10605160641C0A2CDDDB6D1C042DC5
:10209000D6DBFEBD0095019400BEE3E7F8B5164619
:1020A00004460D460A461F460120002104F0BAF9F5
:1020B000220104F0B7F95D4B083B1A685B681040D9
:1020C0001940084300D100BE032C00D10424594913
:1020D00060014018690008183E43C680F8BD70B51D
:1020E00004460D460A460120002104F09BF9220116
:1020F00004F098F94D4A083A1368526818401140A4
:10210000084300D100BE032C00D1042449496001DA
:1021100040180121A940818070BD70B504460D466C
:102120000A460120002104F07DF9220104F07AF929
:102130003E4A083A1368526818401140084300D1DB
:1021400000BE032C00D104243A496001401801214B
:10215000A940418070BDFFB581B00C4605460A46D6
:102160001F46012000210A9E04F05CF92A0104F0B8
:1021700059F92E4B083B1A685B6810401940084318
:1021800000D100BE002E2146284602D0FFF7C5FF31
:1021900001E0FFF7A4FF3B4621462846039AFFF7DC
:1021A0007DFF05B0F0BD70B5012421461338814094
:1021B0000D4688B200F02AF884401F48C189A9431F
:1021C0000C43C48170BD10B50446133804280BD8E5
:1021D0002046FFF7E8FF1549A000A03140188038DD
:1021E000406B002801D0804710BDE106C90E0120D8
:1021F00088401249086010BD1320E4E71420E2E78C
:102200001520E0E71620DEE71720DCE700280AD0DB
:10221000411E4840C003010C002001E04908401C59
:102220000029FBD100E0102080B270470880002018
:10223000686B0020003000500014005080E200E085
:1022400010B5FFF7A0FE052109078888174AC30BC0
:10225000104618D0164B1C88640714D511788907CE
:1022600010D519880222114319801988490849009C
:1022700019804468002C05D0985E0421595E0A221A
:102280009A5EA04710BD8988C906FBD51178C90799
:10229000F8D0084901228A800A8880239A430A805C
:1022A00080680028EED0804710BD00000882002022
:1022B0000002005000010050084301218903034639
:1022C0000B432E490B802E4B1843088009200243F4
:1022D0004A80704729490A880F239B0100079A43C7
:1022E000800D02430A807047244826490288022351
:1022F0001A430280491E02D302889207FAD40021B1
:102300000181408970470AE000BF00BF00BF00BFE5
:1023100000BF00BF00BF00BF00BF00BF00BF401E26
:10232000F2D2704770B50222510204464E00304688
:10233000FFF7C2FF1420FFF7E6FF002C01D00920B1
:1023400000E00720FFF7C6FFFFF7CEFF054601209C
:10235000FFF7D9FF022200213046FFF7ADFF002C26
:1023600001D0092000E00720FFF7B4FFFFF7BCFF12
:102370004019024A0021118070BD00000015005074
:1023800001400000A086010008B589210520000752
:1023900001810121634A4903118001888022114390
:1023A000018001888908890001805F48018A022232
:1023B0001143018200F09AFB04F048F904F04CF953
:1023C0000020694601E00888401C088008889128A0
:1023D000F9D308BD08B55549002008804880554A02
:1023E000534BD380FF23D2331381C880C321518044
:1023F000514A082111806946088003E06A46118825
:10240000491C1180694609889129F7D369460880DB
:1024100003E06A461188491C1180694609889129A0
:10242000F7D3694601E00888401C08800888912895
:10243000F9D308BD414A5080918001201080D08896
:10244000C007FCD17047F1B5FFB0FFB094B011AC3C
:1024500035480494008AA41C1090FFF795FF334878
:1024600001880F9141880E913249CA880D920A89DC
:102470000C92C2880B92408B0A9031484088099098
:1024800048888446FFF7A6FF00252B46FF2111A8A8
:10249000FFF7D0FF00210A460846049E275C365C01
:1024A0007E40F607F60F8E401643491CC9B2F2B2C1
:1024B000082906D1FFA9C96C4A556D1C0021ADB28F
:1024C0000A46194FC82620373E801030FF2680B2BA
:1024D000B600B042E1D95B1C9BB2022BD6D31249A5
:1024E0001098088214490020088010480F99018034
:1024F0000E9941800F490D9ACA800C9A0A810B9A55
:10250000C2800A9A42830E4A0998508060464880E9
:102510000520000701888022914301807FB07FB0B1
:1025200015B0F0BD00020040E03000500024005023
:1025300080800000602800502020005000350050AE
:1025400000260050B14AD1609060704710B501205C
:1025500000F0B5F90520000200F0ECF9C0B210BDA2
:1025600070B50024AA4DFFF7F1FFC00704D0641C2A
:10257000AC42F8D30020C04370BD70B5FFF7F0FF48
:10258000002817D100F09BF900F046F99F2000F0D9
:10259000BAF9002000F0B7F90504002000F0B3F903
:1025A00004022C43002000F0AEF92043054600F061
:1025B0003AF9284670BD70B5FFF7DFFF934C954A96
:1025C000002114234B43D5589B185B681D400340E2
:1025D0009D420ED1142308B24B4320809B189D6866
:1025E000A560DB68E360142358438018606048B23C
:1025F00070BD491C89B20429E3D300206060401EED
:1026000070BD70B5FFF7ACFF002815D100F057F989
:102610007F4E0025062000F08DF90024FFF796FF7D
:10262000C10703D1800701D5002070BD641CB442EE
:10263000F4D36D1C322DEDD30020C04370BD70B5B6
:10264000064672480D4680685119814201D9441BE3
:1026500000E01446FFF784FF00281AD1022000F0A2
:102660002EF900F0D9F8032128460906084300F0A6
:102670004AF9002000F023F9002505E0002000F0D1
:1026800042F930706D1C761CA542F7D300F0CBF8F0
:10269000204670BD70B505465C480E46C0681446BD
:1026A000824200D984B2FFF75BFF00281ED1FFF7FA
:1026B000A8FF00281AD1022000F001F900F0ACF8C0
:1026C000012130464906084300F01DF9002000F0C2
:1026D000F6F805E028786D1C00F015F9641EA4B228
:1026E000002CF7D100F09FF8FFF73AFF70BD70B5EE
:1026F0000D460446FFF785FF002802D00020C043A6
:1027000070BD022000F0DBF82806204300F012F92B
:10271000FFF726FF70BD10B50024FFF721FF00284A
:1027200011D1012000F0CBF800F076F80920000369
:1027300000F0E9F8002000F0E6F8002000F0E3F8EF
:1027400084B200F070F820B210BDF7B582B02F4F00
:102750000E460091F96814460D46304603F06EFEB1
:10276000401C6843451E002000F0A9F8B868801B93
:10277000A04200D204462646002719E0009880199E
:10278000A84202D900982E1A761C0298B2B2C0193B
:102790000099FFF77FFF002803D00020C04305B059
:1027A000F0BD681C00901948BF19C0682D18E61BC1
:1027B000A742E3D33846F2E710B5FFF7D1FE002871
:1027C00005D100F07CF8B92000F0B4F8002010BD6D
:1027D00010B5002000F073F8AB2000F0ABF800203B
:1027E00010BD1FB56A465173107300200090019010
:1027F000034602460146029003A800F01BF8FFF7CB
:10280000E7FFFFF7D8FE04B010BD000020900020C5
:1028100080841E00706B002010B54C484178007811
:10282000FFF75DFC10BD10B5484841780078FFF710
:1028300074FC10BDF8B50E46154644490278079F52
:102840000A7040781C464870FFF7EDFF052000072E
:1028500081880122D202114381803D4801884908C4
:10286000490001800188FF2281329143F201114326
:102870000180018840229143AA011143018001880F
:1028800004229143A2001143018001880222914356
:10289000069A52001143018001880122920391435C
:1028A000BA0311430180018818229143089AD2008B
:1028B000114301800188012211430180F8BD2449A0
:1028C0000A88520852000A800A88FF2381339A43FB
:1028D000C00102430A800888012210430880704723
:1028E00010B51B48018849084900018005200007F0
:1028F00081880122D2029143818014484178007876
:10290000FFF70BFC10BD10B5114900230A88D20552
:10291000920F012A01D9040C8C8048800888800419
:10292000FCD50120C880012A01D988880304488881
:10293000C01810BD10B50446FFF76EFF2046FFF724
:10294000E2FF0446FFF76FFF204610BD30900020E5
:1029500000120050F0B5174D2B7005231B079C8803
:10296000202634439C80144C0023A381124B612603
:10297000603B1E801E880627BE4349000E431E8012
:1029800019881026B1431201114319808105890D60
:1029900099800121A181218A8906FCD46870F0BD4B
:1029A0000549002088810520000781882022914365
:1029B00081807047329000206013005030B4344C56
:1029C00033493448603409E043681A780A60026881
:1029D0005B1C521E0CC00838002A05D0A28B92073F
:1029E000D20FF1D130BC7047002242604B68022404
:1029F000A3434B6081680029F4D0826030BC002082
:102A0000084710B5224881680907090F01291AD023
:102A100002291CD0042917D00C2914D11D4A117E7B
:102A2000012910D141690906C90F0CD00021D160DC
:102A3000116183885B085B0083805369002B02D09F
:102A400001205161984710BD00F004F810BDFFF758
:102A5000B5FF10BD0F490E4809E002680B691A70F6
:102A6000CA685B1C521E0B61CA60002A04D042690E
:102A7000D207D20FF1D1704700220A6143685B0888
:102A80005B0043604B69002BF5D000204A6118477A
:102A9000001100501482002030B58C498C48CA05C2
:102AA000148880231C4314808A4C65892D0701D427
:102AB000491EFAD2884C01212160884C018821806E
:102AC00087494088088010889843108030BD0020D6
:102AD0007047704770477047002070470121890791
:102AE000086B0722104308637047704730B57E4972
:102AF0007C4808607D494C2008807C4C7C4B203C05
:102B000023827D497B4848807D487C4901807B4900
:102B10001931418022214181812189000182794935
:102B2000418279490183774911314183744A774958
:102B3000203291804122764912018A80754ACA80EA
:102B4000744D1035CD810A824A82921C8A826A1F96
:102B5000CA82FF2246320A836F4A4A836F4A59214A
:102B600011806E496E4D20310D8043254D806D4D95
:102B70005582D5228A80FF22D3320A816A4A4A814D
:102B80006A4A8A816B4A6A49118058496A4A60399F
:102B90004A80CA8810252A43CA80614A0A3A0A81B3
:102BA000524D664A403D6A80638208224A814C4900
:102BB0005A4A0988403A11824849614A0988118075
:102BC00060490978002901D03021018330BD4008D7
:102BD000704700B58BB05C4A42625C4A82625C4AD4
:102BE00042615C4AC2625C4A02605C4A02625C4AC0
:102BF00042605C4AC2613C4A3A48002110603A484F
:102C00004038026B03129A430263426B1F231B047A
:102C10009A4303231B04D218426353480268C31229
:102C20009A430260026803139A4302606846415463
:102C3000491CC9B22829FAD3014628224B4803F07F
:102C4000ADFAFFF753FF03F0F1FA4949088000207D
:102C500003F0F2FA03F0F6FA0BB000BD10B522490A
:102C60002048086020484038416B1F2212049143DD
:102C7000032212048918416300060168C908C900CB
:102C8000016005200007018989088900491C01812C
:102C900001890822114301810E484189890504D523
:102CA00001887822914308310180FFF71FFF3148E6
:102CB000006F0078002804D02F4800880B49603945
:102CC000C880012003F0EEFA10BD0000A0860100CC
:102CD000087F0400200000500080004056020800D9
:102CE0004A0308004C05540780000040602C005047
:102CF0007F7F0000AC29000000220050090900007D
:102D0000002400502204000030D00000EE1100002A
:102D1000002500502E0200004420000040280050F2
:102D20000D95000002420000E4DC0000109200005B
:102D300053780000002A00508B1000009DD5000041
:102D40000026005030820020CF2A0020D32A002005
:102D5000D92A0020DD2A0020D52A0020EB2A0020D5
:102D6000D72A0020CF2B00200002004020000800BE
:102D700078040800E00100205204080070B5012525
:102D8000AD07AC6B2046FDF76EFFD34903F056FB51
:102D900027221201511A00D10121D04A506011603E
:102DA000286B0821884308432863CD480460CD4838
:102DB0000068002802D0A04200D200BE70BDFFB55E
:102DC00000256A461570C849096800297CD00A4662
:102DD0004032937C002B77D0C44CC54B012813D0D4
:102DE000098D26460907803E0127366FC90EFF046C
:102DF000C919715A6E46890B31713179002963D036
:102E00003179012906D011E06E46E16C3170002164
:102E100099700BE011894E267143B64E25688919C9
:102E2000695A6E460D0AD17C691A317031780029D1
:102E30004BD0B14DB049603DAE6E097B2E254D4360
:102E4000B446751905E0491C4907490F2E254D4325
:102E500065446E463678761E37063F0E6E463770EE
:102E6000F1D1AD786E06760E6D462E712D79AE06D7
:102E7000B60E6D462E722E2569439E4DA469463DC1
:102E80004919615A6D46C906C90F2973012805D031
:102E900000209870287B00280FD10BE0287B0028A9
:102EA00002D1287A00280FD0107D00280CD10120F3
:102EB0001AE009E0287A002806D0107D002803D106
:102EC000D07D08210843D075FFBD0128FCD0002D1E
:102ED00002D09878002806D0107D002803D1D07D3C
:102EE00008210843D07500209870FFBD10B505205B
:102EF00000074189890708D04189890889004181F3
:102F00007E494A88520852004A8001898022114332
:102F10000181018A042291430182818A8907FCD5BB
:102F200003F0A0FB012080070169490700D500BE1E
:102F300001694907FCD510BDF8B56D4EF088002831
:102F40002AD101200527F0803F077889800720D00B
:102F5000B88A400701D502F07BFD684D28888021A2
:102F600008432880664CFF20608004202080FEF704
:102F7000FFFF7D21C900E088A288000480188842F4
:102F8000F9D905202080B088788029888020814365
:102F900029805C4910200860F8BD70B5FEF7F3FF8A
:102FA000FFF7A4FF524C00265748E68001894908E4
:102FB0004900018101208007816904221143816158
:102FC00003F056FB4F49102080310125086003F0C3
:102FD00055FB03F059FB494826704089800510D500
:102FE000607800280DD1494865700088C00708D175
:102FF0000120FFF797F98B218900884201D902202F
:10300000607070BD10B503F045FB00F05DF8384905
:103010000120087010BD10B501208007008A00064D
:1030200001D500F051F810BD10B50120FFF7C7FE23
:1030300003F036FB10BD10B50124A407208A000759
:1030400018D50220FFF7BBFE03F030FB20684000DC
:1030500040086100084320602068C00FFCD11F4871
:10306000803001680906090E01D001210160204964
:103070000420087010BD70B52548008885062548D5
:10308000AD0E44681948006F0078002802D1284628
:1030900003F012FB20480089154EC00507D5200615
:1030A0000BD5E00709D0284603F00CFB03E020060F
:1030B00003D5E00701D003203070200403D5E005DC
:1030C00001D50220307070BD10B509490120C870CB
:1030D00003F0FEFA10BD0000710200004000004045
:1030E000408200203C8200206C030800E0010020A8
:1030F000328200204A0008003803080020000050F7
:103100000016005000E200E00033005000150050AF
:103110000020005000020040002C0050FEB5604C22
:103120000026606D37460090FDF7C9FC5D4D002814
:1031300002D12879022801D100200090FDF7BDFDC1
:1031400000280ED103F0CAFA00280AD055480126FB
:10315000C078002805D005252D07A88AC00701D012
:1031600004269AE003F032F800287DD14E488069A9
:10317000002801D0606D00904A48009C8178684624
:1031800003F0B2FA00286FD00120800740694006A2
:103190006AD444488178684603F012F800287CD04D
:1031A0000020FF2100942D3101240190A407206A02
:1031B0008842FCD33B488178684603F095FA0028A2
:1031C0006BD06069400668D436488178684602F062
:1031D000F7FF002861D00098002804D00199002949
:1031E00001D0401E00903149002209788320022935
:1031F00000D1B5202E490B78012B00D121300A7067
:10320000E26B0F21920A92020A43E263E16B294AC0
:10321000800211400143E163E06B3721C002C00A24
:1032200089050843E06300980426002801D0001DAA
:103230000090C002642103F001F9002800D0401E74
:103240001D49086017490979002900D0012103F0C0
:1032500051FA1A48C06A8047FDF746FD00280AD097
:1032600028883021084300E017E0288028880321BF
:10327000084328800127206B0004C00FFBD01048B2
:103280000168C905FCD5002F01D0FEF77CFE03F0D4
:1032900037FA28898021884328813046FEBD000006
:1032A00060020020C6060800A805080054020800B5
:1032B00033820020FF03E0FF3C8200201C0708004F
:1032C0000002004010B51221244803F01FFA2449DF
:1032D0001C2003F021FA00211C2003F013F810BD7C
:1032E00030B503460120002103241A46CA40D20704
:1032F00004D04D0022466D1CAA401043491CC9B29F
:103300000929F2D330BD02460020122901D98D20AF
:103310007047062A06D0072A07D0082AF8D10729BD
:10332000F5D170470829F2D170470629EFD37047CD
:1033300070B50A4C0546218802231C22094802F078
:10334000E7FF058002F0EAFFE088002103F0EAF9D8
:1033500001211C2002F0D6FF70BD00004482002035
:10336000D46C002004700000FEB53B4E1C20708021
:103370001D46174634460888FFF7B2FF02903748CB
:10338000334601900833132202A90097A01D03F0D1
:10339000CFF9040008D1F088002103F0C3F90446F6
:1033A00001211C2002F0AEFF01231C2229462C48DB
:1033B00002F0AEFF047002F0B1FF0020FEBD70B558
:1033C0000C4625490B802078082814D8CA88083173
:1033D000415C51188DB2822D0BD06178FFF793FFBD
:1033E000010009D16D1C6178A8B2A21C03F0A6F9F6
:1033F00008E0822100E08121194B17485B1CDA1C90
:1034000000F030F8002070BD70B51D460C460888ED
:1034100003F09AF9104AFF281071158009D0A1789D
:10342000D08803F07FF902211C2002F06BFF0020FE
:1034300070BD0B4B89219B1C9A1C074800F012F8A9
:10344000F5E710B5044A180A1279904202D10888AB
:10345000FFF76EFF002010BD44820020C06B0020EB
:1034600001700000F8B514460F461E460546428816
:1034700001880623204602F04BFF0446287903F01A
:1034800069F9208027716680204602F047FFF8BD69
:1034900070B51446428800790D4601020423344871
:1034A0000C3102F035FF002D01D0132100E0122174
:1034B0000170448002F032FF70BD38B520206946AB
:1034C0002C4C08706088002800D0401C0B4680B24D
:1034D0000122002103F044F96088002800D0801CFC
:1034E00080B2402103F042F900F048F8FFF7EAFE0D
:1034F0000024214D09E040194069002803D0641CD4
:10350000E4B2804701E0641CE4B220461C21484339
:10351000295CFF29EFD138BDF7B50D461C2002F01C
:10352000D3FE022805D1EAB21C230299009803F0C9
:103530007BF8362002F0C8FE022805D1EAB2362315
:103540000299009803F070F8009800240A4E0702D0
:1035500008E03B460343641CE4B2EAB202990098D7
:1035600003F062F81C206043305CFF28F1D1FEBDFF
:103570000D300000F6040800AC6F002010B50821E3
:10358000104803F0C3F81049362003F0C5F80021B5
:10359000362002F0B7FE10BD70B50A4D0446E8882B
:1035A000002103F0BFF8298804233622074802F0DF
:1035B000AFFE048002F0B2FE0121362002F0A2FE2E
:1035C00070BD000058820020886D002001D80000E6
:1035D000FFB58BB00521C90268468182C91C0182F2
:1035E000FA490183FA4C3621618006219925009120
:1035F0000822002301953621A01D03F0BDF8050027
:103600007ED1A01D0125009501900222E08805AB26
:10361000114603F0B7F8E088EE4A022103F08EF875
:1036200003AE01960095E08804AB0222132103F05B
:10363000A9F802AF092001970090E088E64B10221C
:10364000042103F09FF8E5496846007A487068460F
:10365000407A88700A4668461321808903F06EF824
:1036600001960095E08804AB0222132103F08AF84A
:10367000092001970090E088D94B1022042103F023
:1036800081F8D8496846007A48706846407A887060
:103690000A4668461321808903F050F80196009588
:1036A000E08804AB0222132103F06CF80197009527
:1036B000E088CD4B1022042103F064F8CB49684622
:1036C000007A48706846407A88700A466846132136
:1036D000808903F033F801960095E08804AB02225C
:1036E000132103F04FF8092001970090E088C04BA8
:1036F0001022022103F046F86846BE49007A00E035
:1037000058E048706846407A88700A466846132137
:10371000808903F013F801960095E08804AB02223B
:10372000132103F02FF8092001970090E088B24B95
:103730001022142103F026F8B0496846007A487038
:103740006846407A88700A4668461321808902F0EC
:10375000F5FFAB4D01960095E08804AB02221321E2
:1037600003F010F801970095E088A64B1022012184
:1037700003F008F8A4496846007A48706846407A21
:1037800088700A4668461321808902F0D7FF09A98C
:103790000920019100900222E08806AB114602F058
:1037A000F1FF0546E088002102F0BCFF0121362030
:1037B00002F0A8FD0123362294480E9902F0A8FDDC
:1037C000057002F0ABFD00200FB0F0BD3EB5804C9F
:1037D0000D46E08802AA0C3080B2694602F0D8FF9C
:1037E000E08801AA0D3080B2694602F0D1FFE0887E
:1037F000AA1C0C3080B2012102F0A0FF01980088C1
:10380000002806D0E08800210C3082B22046FFF765
:103810003FFE00203EBD10B56D480A46C088042119
:10382000801D80B202F08AFF002010BD38B50D4621
:1038300000206946664C08802380288802F084FFB7
:103840002071FF2817D0E0886A460D3080B202212F
:1038500002F074FFE0886A460C3080B2012102F069
:103860006DFFA978E08802F05DFF0221362002F0AA
:1038700049FD002038BD654A1B23DB02521C89210B
:103880005348FFF7EFFDF4E7F8B5514D0C462979A1
:103890008022180A88427DD1E988208826468B1C20
:1038A0000027083698420ED10121009161883246E6
:1038B00002F044FFE079002875D0544808233622EE
:1038C0002988C01F10E00B1D984229D102210091C8
:1038D0006188324602F032FFE079002863D04B481D
:1038E000298808233622801F02F012FD0646287917
:1038F00002F030FF30807760E07A01067160A07AD4
:10390000000401437160607A000201437160207A13
:10391000014371600098B070304602F0FFFC42E055
:103920000B460A3398421BD104200090E07900280E
:1039300039D03648298818233622001F02F0E8FCC7
:103940000746287902F006FF388062883146381D24
:1039500002F024FCA078F8700098B8703846DCE7D4
:103960000B460833984220D10321009161883246EA
:1039700002F0E4FEE079002815D0244829880623C7
:103980003622401F02F0C4FC0646287902F0E2FE0F
:10399000308000E018E0B780607A0102B180207AC0
:1039A0000143B180B6E7002207E00D31884204D11F
:1039B0006188324602F0C2FEF5E7A079012803D102
:1039C0002188287902F0EAFE0020F8BD02290000D3
:1039D00058820020246D0020266D002018760020DB
:1039E000366D00202B760020466D00203E760020AC
:1039F000566D002051760020666D00206476002010
:103A000001020000766D00207776002009D80000C2
:103A100010B5054A180A1279904202D10888FFF7BA
:103A2000BBFD002010BD00005882002010B50E2103
:103A3000104802F06BFE1049372002F06DFE0121A4
:103A4000372002F05FFC10BD70B50A4C0546628855
:103A500021880223094802F05BFC058002F05EFC2D
:103A6000E088002102F05EFE0021372002F04AFCCF
:103A700070BD000062820020E86D002009DC0000BB
:103A8000FEB5DA4C1F460D4662800023D84816E08A
:103A9000914212D13118496800290ED01C214B43A4
:103AA00018184068019000922A78A01D6B68A968D8
:103AB00000F0FCF9060008D011E05B1CDBB21C260C
:103AC0005E43815DFF29E3D112E028782072E0880F
:103AD000002102F027FE0021372002F013FC012311
:103AE00037223946C34802F013FC067002F016FC78
:103AF0000020FEBD70B51D460C46088802F024FE6D
:103B0000BA4AFF281071158009D0A178D08802F038
:103B100009FE0221372002F0F5FB002070BDB54BF5
:103B2000B44A5B1C09328921B048FFF79BFCF4E7DB
:103B3000F0B5AE4815460C460279190A8FB091428D
:103B40007DD12388C188007A591A8EB2B04278D9C3
:103B50000AAA0EA9184602F027FE6846018D2046E3
:103B6000A54A08300190914218D1208800F05BF9F5
:103B700007A902F01FFE6846808B4005800F0128D0
:103B800000D00020214600F039F905062D0E2DD178
:103B900061882088019A02F0D1FD26E00020944F30
:103BA00015E0A94211D1D119896900290DD00199D7
:103BB00000911C256843C01985696388A288E17952
:103BC0003046A847050008D010E0401CC0B21C21B8
:103BD00041430A46B95CFF29E3D1A288002AD7D025
:103BE00061882088019B02F0EBFD0546E079002802
:103BF00028D0002D26D1208809AA02A902F0C8FDEC
:103C000068460089801D83B27848428801887948D7
:103C1000C01D02F07DFB074668460289B81D099960
:103C200002F0BCFA7148007902F094FD38807E8081
:103C300068460089B880384602F070FB02E00AE06E
:103C4000FFE78225A079012805D1684821880079FD
:103C50002A4602F0A3FD00200FB0F0BD70B5634C02
:103C60000E46087821886288122802D0132808D0CE
:103C700018E060480623001D02F04AFB05466089F3
:103C800006E05C480623801D02F042FB0546A08941
:103C90006880207902F05EFD2880707828712846BF
:103CA00002F03CFB002070BD70B5504D0C462879E9
:103CB00002F050FD2188884207D1E8886188A21D62
:103CC000401880B2A18802F039FD002070BDFEB519
:103CD000464D0C46287902F03DFD2188884223D1CB
:103CE000E8886188A21D401880B2A18802F026FDF4
:103CF000E8886188401880B2297A00F0B3F86A46F3
:103D000001A902F045FD00980088012801D08B260A
:103D10000BE0E8886188401882B200213348FFF741
:103D2000B7FB6088688112E0812632486A8829885A
:103D30000623001D02F0ECFA074660887880287997
:103D400002F008FD38803E71384602F0E7FA0020A4
:103D5000FEBDFEB5254D0C46287902F0FBFC2188FE
:103D6000884223D1E8886188A21D401880B2A188CA
:103D700002F0E4FCE8886188401880B2297A00F0FB
:103D800071F86A4601A902F003FD00980088022834
:103D900001D08B260BE0E8886188401882B20121AF
:103DA0001248FFF775FB6088A88112E08126114850
:103DB0006A8829880623801D02F0AAFA07466088CF
:103DC0007880287902F0C6FC38803E71384602F0CF
:103DD000A5FA0020FEBD10B5044A180A12799042D7
:103DE00002D10888FFF730FE002010BD628200205B
:103DF000AC6F002001DC00000229000002464B8865
:103E00000020022B01D00D2070470989002A05D01F
:103E10000029F9D00129F7D0812070470029FCD072
:103E20000229F9D1704770B586B0044602F0F4FA61
:103E300005461D4E0EE06A4604A9204602F0B4FC79
:103E400068460088B04203D1641CA0B206B070BDC1
:103E5000641EA4B2A888A04202D8E888A042EAD290
:103E60000020F3E7F0B585B0044602F0D5FA0E4E17
:103E70000546FF360C4F0FE06A4604A9204602F0C3
:103E800093FC68460088B04202D1204605B0F0BDE0
:103E9000B84207D0641CA4B2A888A04202D8E8881F
:103EA000A042E9D20020F1E703280000FFB5002678
:103EB00085B0154642486A46344637461082002986
:103EC00004D0042203A802F069F902E00020C043F4
:103ED00003900020039916E00A460241D20710D051
:103EE0000F9A03019A181379022B02D0102B05D1D7
:103EF00002E0761CF6B201E0641CE4B21289D21929
:103F000097B2401CC0B2A842E6D3009400233246C8
:103F100001970E99059802F02FFC00242AE00399DE
:103F20002141C90724D00F9927017E18F18802A8E2
:103F3000009101900F983279C35905983189008812
:103F400002F020FC002813D17189002910D03079AB
:103F5000022807D10F980222C05904A902F018F9CB
:103F600000280DD0684671890089F26802F0E6FBEE
:103F7000641CE4B2AC4201D20028D0D009B0F0BD3C
:103F8000F0684078FF2809D00899002906D00599E3
:103F90006A4609781289511A089A11546A4610899A
:103FA000411C11807189F26802F0C8FB0028DFD142
:103FB0006B4602220121188902F0D2FBD8E70000EB
:103FC0000328000010B500F02FFC00F00BFD00F0FE
:103FD00088FA0120FCF72BFD10BD0C225043304A1B
:103FE00010B580188078FF2803D0088800F06CF89E
:103FF00010BD01F083FD10BD10B500F04FFA002890
:1040000001D001F07BFD10BD10B501F077FD10BDB2
:1040100010B501F007FB10BD38B5044600F04EFBAB
:1040200000216A465054491C000AC9B20429F9D338
:1040300004226946204601F018FB38BD10B501F096
:1040400052FB10BD10B50446497800F040FB2046F5
:1040500001F07BFB204601F06AFB10BD10B5044661
:1040600001F0B2FB002810D04C200E4960434018EC
:104070004030417A0022204600F0D6F9204601F077
:10408000BDFB204601F092FB10BD204601F0CBFBAA
:10409000204601F08BFB204600F0ACF910BD00007B
:1040A0008C820020AE8200200021F74A05E0834286
:1040B00001D101207047491CC9B20C234B43D35C8A
:1040C000FF2BF4D100207047F8B505460024EE4ED2
:1040D0000AE080198168002904D0641CE4B22846F3
:1040E000884701E0641CE4B220460C214843315C5F
:1040F000FF29EED1E44E00240C3609E08F19B9688F
:10410000002903D0FFF7D0FF002809D0641CE4B2D7
:104110000C216143705CFF28F0D10024DB4E10E0DD
:10412000641CB968E4B228468847F1E78019016940
:10413000002904D0641CE4B22846884701E0641CCE
:10414000E4B220461C214843315CFF29EED1F8BD82
:1041500070B5CD49CE4C0E460C36CC4D0DE0521804
:104160005268002A07D0C2B20C235A43511849683A
:10417000401C60702DE0401C607060780C2242434F
:104180008B5CFF2BEBD10AE089194968002903D029
:10419000FFF78AFF002809D02078401C2070217882
:1041A0000C204143705CFF28EED117E020780C21F1
:1041B000414389194968401C20700AE04919C968BF
:1041C000002909D0C1B21C2251434919C968401CB9
:1041D000A0708847002070BD401CA070A0781C21F2
:1041E00041436A5CFF2AE9D10020A0706070207012
:1041F000012070BDFFB581B004461E461546184625
:104200000A9F02F047FB0090267021463846009A2C
:1042100002F0DCFA002803D000BE002020700BE082
:104220002278AA4200D900BEAA4200D32A462270B0
:104230000099029801F0B2FF009802F001FB05B06E
:10424000F0BDF0B5924899B0C06800285DD1502308
:1042500032220D218F4802F05BF804468C4E002577
:10426000F0600E2020706570A580A020A081E08104
:104270000720207401206074A57421460B2014319E
:104280000090481E20231C2217910190FFF7B2FFD7
:1042900021460C2031310090481E20231F22189106
:1042A0000290FFF7A7FFF0681A22C17C2030571A4E
:1042B000007C1D210E1A68460574002F01DC002EBB
:1042C00023DD3E206946087406AA04A9022002F0F4
:1042D0007DFA002803D000BE6846057415E06846E4
:1042E000017C002911D08F4205DBE27C179806ABD8
:1042F0001218019807E08E4207DB2034227C1898C0
:1043000006AB1218029800F0FBF86148C06819B0BB
:10431000F0BD70B55E4E04468500361D705900280C
:1043200014D121020A2332225B480E3101F0F0FF42
:104330000A210170002C00D000BE70511021818034
:10434000082141800021C1807D210181705970BD0B
:1043500070B54F4DA868002821D14E482223322243
:104360000D210A3801F0D4FF032101700446A86032
:104370000A204549607010222139A01C01F00EFF6F
:1043800000216182217561751720E0820820208359
:1043900010206083A1836420E08320342170A8680A
:1043A00070BD3C4810B5012332220D210B3801F0BD
:1043B000AFFF0221017001F0B1FF10BD344810B50C
:1043C0000C21183002F0A2F93149002018310122E5
:1043D0000C2343435B18401C00061A71000EF7D0F3
:1043E00029493220303102F097F90021322001F0C2
:1043F00089FF10BD10B5040000D000BE2648210280
:10440000022332220A380E3101F082FF0C220121F0
:10441000544301701E4A1321417018320021A21822
:10442000D17001F07BFF10BD70B50D4601021A4836
:1044300014462C2332220C380E3101F069FF01465C
:1044400020310D724C7201F069FF70BDF9E610B5B4
:10445000FFF7F7FE01F062FF0D490020C86002215E
:10446000322001F04FFF10BD10B50446FFF751FF99
:1044700001F054FF064A0020A100121D50500421F3
:10448000322001F03FFF10BD8C6E0020AC6F002089
:10449000748200200E3400000E38000010B5012197
:1044A000322001F02FFFFFF753FEECE750E610B586
:1044B000FFF74EFF01F032FF1A4900208860E2E763
:1044C000184A002124324B00D35C834203D14800B8
:1044D000801840787047491CC9B20A29F3D30120DB
:1044E0007047104910B50020FF23243101244200F9
:1044F0008B545218401CC0B254700A28F7D3C2E73C
:1045000070B50646481C1070092015460C465070C0
:1045100022461946A81C01F041FE3078A41C00195F
:10452000307070BD7482002010B5104601F0CCFED2
:10453000002809D1012332220D215C4801F0E8FE58
:104540000121017001F0EAFE002010BD70B50D7868
:10455000574C0E2D23D008DC012D14D0022D0CD089
:10456000032D16D00D2D08D10BE00F2D09D0102DE5
:1045700007D0112D05D0122D03D02568002D00D0B5
:10458000A847002070BD48780028FAD1FFF78FFFB8
:10459000F7E748780028F4D1FFF72EFDF1E74878D7
:1045A00001F01FFBEDE7F8B51C4610460E4601F082
:1045B0008BFE022829D1240A00D000BE0C202746F9
:1045C00047433C483D18AC70FF2C1AD00121E970DC
:1045D0000521322001F096FE36483188C153707AA9
:1045E00068713146A81D06220A3101F0D7FD4C2022
:1045F0003149604340184030417A00222046FFF79D
:1046000013FF3146204601F0BEFA0020F8BD70B518
:104610000C46097816460A2908D0254D2968002934
:1046200002D021462C68A047002070BD104601F042
:104630004BFE0428F8D160780028F5D105213046DA
:1046400001F060FEF0E710B510460C4601F03CFEAC
:10465000032803D0052801D0042802D1204601F008
:10466000C4FA002010BD10B510460C4601F02CFE17
:10467000012808D12078002805D1FFF717FF00286E
:1046800001D001F005FA002010BD00207047002085
:104690007047FEB51C46064D089B08262D1D6F462B
:1046A00068C71346224600F074FEFEBD02340000C7
:1046B000CC6E00208C820020AE82002010B501F06C
:1046C00041FF1F4902F088F81E48081810BDF8B5D0
:1046D0000E464C2148431C490024451841204655AC
:1046E00001F030FF29192031641CE4B20870082C55
:1046F000F6D300241027381BB04201DD002007E06C
:1047000001F020FFC117090E0918090A0902401A11
:104710002919641CE4B20874102CECD301F012FFC8
:104720002885F8BD70B54C21484307490024451839
:1047300001F008FF2855641CE4B2102CF8D370BDBA
:10474000A0BB0D00A0860100AE82002010B50A7843
:10475000180A130001F0BEFD0805151515081510FF
:104760001315FFF755FC0CE04A78012A01D0002A06
:1047700007D1FFF751FC04E0FFF760FC01E0FFF711
:1047800061FC002010BDF8B51C0A4C256C43234D7C
:104790000F7865192C461E0A4034022F0AD0032FC9
:1047A0001CD0052F20D01E4C2568002D00D0A84716
:1047B0000020F8BD89786172C907F9D0002E00D0B9
:1047C00000BE0C214E431749284671184A79A27041
:1047D00043300622891D01F0E1FCE9E73046FFF78E
:1047E00009FE00206072E3E728462A301722891C60
:1047F000F1E710B5180AFFF731FC002010BD0020CA
:104800007047FEB51C46064D089B04262D1D6F46BD
:1048100068C71346224600F0BCFDFEBDAE820020F4
:10482000206F00208C820020704710B51C210223CD
:104830003222880201F06CFDFF217431018001F009
:104840006DFD10BD70B50546042332221C210748BA
:1048500001F05EFD044605801C20FFF731FEA070CC
:104860000020E070204601F059FD70BD037000008B
:10487000FEB510460E4601F027FD01287ED13078A6
:10488000002876D10E2332221C21484801F040FD39
:104890000446002020700B206070024644A1A01C3A
:1048A00001F07CFC204601F039FD0A2332221C2154
:1048B0003E4801F02DFD044601202070072565705B
:1048C0002A463EA1A01C01F069FC204601F026FD0D
:1048D0000B2332221C21354801F01AFD0446062024
:1048E0002070082767703A4636A1A01C01F056FCDC
:1048F000204601F013FD082332221C212B4801F031
:1049000007FD052202700446427031A1801C01F0AF
:1049100045FC204601F002FD0A2332221C212348D7
:1049200001F0F6FC04460420207065702A462AA196
:10493000A01C01F033FC204601F0F0FC0A233222D7
:104940001C211A4801F0E4FC077004464570012060
:10495000A070D221684601800B21C90141807901F4
:10496000818006226946E01C01F018FC204601F017
:10497000D5FC322201231146900200E005E001F04F
:10498000C7FC3178017001F0C9FC0020FEBD002099
:104990007047FEB51C46089B0226114D6F4668C73E
:1049A0001346224600F0F5FCFEBD00000270000038
:1049B0004469616C6F672053656D6900444131340F
:1049C00035387800123456FFFE9ABCDE0000000035
:1049D000782E792E7A000000765F352E302E340046
:1049E000446F0020FC480021017441618161C16075
:1049F000FA4A01771165142101707047F6480021C9
:104A000001744161C160704710B501233222362123
:104A1000F34801F07DFC0021017001F07FFC10BD26
:104A200070B50546362110233222880201F070FC51
:104A30000446E948001F058025803620FFF740FD29
:104A4000A070002161602046A16001F067FC70BD8C
:104A500010B50446E34804230288E1483621401E8D
:104A600001F056FCDC49091F09880180847001F0BF
:104A700055FC10BD10B5D84C2078032801D1FDF7A6
:104A80002FFF14202070002001F026F810BDFEB585
:104A9000064600200124640400900190034602466B
:104AA0000146029065123046FDF7C4FEFDF733FE65
:104AB000CD4980B2401806D02D210902401A02D0FB
:104AC000012800D1840429462046FDF73BFDFEBDA8
:104AD000F8B50446C048C54E017A00270906090FFB
:104AE000A171027AFF4313071B0FE37102891204BD
:104AF000120F227002891205120F62708268120270
:104B0000120FA27082681203120FE2708268120FF5
:104B1000227180680001000F6071282041438A19CA
:104B200099005058002801D0384600E0012050502C
:104B3000A579E279C11701F075FC2A0101F072FC38
:104B4000AB4A136855681843294310605160A07838
:104B5000282148438219E07881005058002801D06C
:104B6000384600E001205050A578E278C11701F0E6
:104B700059FC2A0101F056FC9D4D2A686B681043D0
:104B80001943286069602079282148438219607997
:104B900081005058002801D0384600E001205050D4
:104BA00026796279C11701F03DFC320101F03AFC2F
:104BB0002A686B68104319432860696020782821AF
:104BC00048438A494118607880000A58002A00D179
:104BD00001270F50384626786278F91701F022FC39
:104BE000320101F01FFC2B686A68184311432860EA
:104BF000696001200090032636026178207808233E
:104C00003246FDF7A8FA00250095E179A07907233F
:104C10003246FDF7A0FA0095E178A07806233246E7
:104C2000FDF799FA00956179207905230022FDF7B7
:104C300092FAF8BD3EB5AA216A46674C11722178F6
:104C4000062013290FD11046FFF742FF6846FFF7F1
:104C50001EFF6168012202A8891CFDF776FD40B2A3
:104C6000012800D10220C0B23EBD10B5012000F0E5
:104C700033FF594C2078C00601D4012000E01020F9
:104C8000FFF7E6FE002020746061A061E0602077FD
:104C900010BDF8B50F460021060E4F4C3546396061
:104CA000142E17D2257080B26060002D01D0012D26
:104CB00007D15049280608436160002101F092FDA8
:104CC00038602078122801D0132803D160680228A8
:104CD0000BD86074112E26D00EDC022E20D006DCFC
:104CE000002E1DD0012E13D11AE0112022E0032E38
:104CF00016D0102E0CD116E0FD2E2CD004DC122E76
:104D00000ED0132E04D10BE0FE2E16D0FF2E0CD0A9
:104D10000820FFF79DFE1420207000203860F8BDA9
:104D2000FFF7A3FFF8BD082004E0FFF7A3FEFFF79D
:104D300065FE0320FFF78CFEF8BD207F002801D020
:104D4000042001E0FFF776FFFFF782FEFFF792FEF7
:104D5000FFF754FEF8BD204801212030017226489B
:104D60008078FFF747FBF8BD10B504461D480423C3
:104D700002881B483621801E01F0CAFA046001F047
:104D8000CDFA10BDFEB5144D0224287800280AD0B3
:104D9000012808D0022801D0032841D00824204649
:104DA000FFF756FEFEBD134E00063043002101F012
:104DB00019FD07468004020C297CFF208B18013066
:104DC00083423DD8801A054A401A121F891880B2C2
:104DD0005432101818E0000000830020B483002033
:104DE00008D8000058820020F03DFFFF0880002016
:104DF00000800020008500208C8200200A6804C00A
:104E00002A7C121F2A74091F2A7C002AF6D12878CE
:104E100000210006304301F0E5FCB84210D02EE03E
:104E20000320696800060843A96801F0DBFC064618
:104E30008004070C287CC119FF200130814201D970
:104E40000724ACE76846FFF743FE6846FFF71FFEFE
:104E500068682A7CC119DA48FDF777FC074628788C
:104E6000696800060843A96801F0BCFC297CB942C6
:104E700001D1B04203D10624FFF776FF8FE7FFF799
:104E800073FFFFF7F7FDFFF7B9FD88E770B502463E
:104E90000020160BC04336030C0B090500D0641C20
:104EA000002C01D000250BE00124002520213046F4
:104EB000FDF71DFC012109037618002802D16D1CA5
:104EC000A542F3D370BD0021FF2802D0401CC0B220
:104ED000704708467047FF2802D0FF2905D006E03A
:104EE000FF2908D0002906D001E0002801D088421F
:104EF00001D9022070470120704710B5B14C03461C
:104F000000202478C043132C02D11846FDF797FBEC
:104F100010BDF7B598B000271A980C463E464028B9
:104F200005D32078702802D16078512802D0122051
:104F30001BB0F0BD6568A3492846403008621F21B8
:104F40000C2209036846FFF7D8FF0C2847D16846B2
:104F50000078702803D168464078522801D0142088
:104F6000E6E70198119002981290002D03D0119954
:104F7000401AA84201D21320DAE768464022109076
:104F8000FFF7BBFF40282AD16846C07814906846D6
:104F9000817803A8169020460C301590AA2907D1D5
:104FA00068460078702803D168464078512803D0BD
:104FB0000127002014900BE010221699159801F09B
:104FC000E7F8002804D1E0690799884200D1022758
:104FD000402212991098FFF790FF402801D0162028
:104FE000A6E76846C078139068468078AA2807D15B
:104FF00068460078702803D168464078512803D06D
:105000000126002013900BE010221699159801F04C
:10501000BFF8002804D1E0690799884200D1022630
:105020001898002801D0022807D9012F11D0012E8D
:105030001CD013991498FFF74EFF1590FF224021C2
:10504000684601F0D5FB1598022815D0022F24D010
:1050500004E0FF224021684601F0CAFB594911983B
:105060004860002E1BD0022E19D00EE0FF224021F6
:10507000684601F0BDFB01E0022E0ED051491298A6
:105080004860002F07D0022F05D001264D4F3878F9
:10509000132809D03CE0149802E0152048E7139843
:1050A000FFF711FF0646F1E74035A9B27868FFF730
:1050B000EDFE00282CD16846C67060680190A0689B
:1050C000029020460C300EC8A069069003A80EC0BE
:1050D000E06907902178684601706178417020206E
:1050E000015D08A801703878132811D11A9A7968DF
:1050F000403A2046154640304031FDF726FBA84295
:1051000006D1402279681098FDF71FFB402801D096
:1051100006200DE700200BE77CB52A4C284A022622
:1051200000205032616904E0237F155C6B402377D7
:10513000401C8142F8D82078122801D0132801D0D1
:10514000082638E06846FFF7C3FC6846FFF79FFC77
:105150006269002A02D0A069002818D0A169206ADB
:105160008A18431C9A4220D8824201D9401A6061B1
:10517000606825464118124862695030FDF7E5FA2B
:105180006969814211D1A8694018A8610EE00C49F3
:10519000607C5031FFF7BDFE002801D086B205E0EB
:1051A0006269A1698918A16100E00626002060619A
:1051B000A069FFF7D9FDF0B2FFF74AFC7CBD000003
:1051C000B48300200083002010B510460C4601F087
:1051D0007BF8012809D1322201231146900201F007
:1051E00097F82178017001F099F8002010BD70B592
:1051F000544C0D462078142847D2A978002942D073
:10520000E168002938D0C0061DD4207CEA788118D6
:10521000502933D84C494018291D00F0BFFF207C8D
:10522000E9784018C0B22074E168814201D1FFF7EB
:10523000A9FD207CE168884202D90520FFF708FC1F
:105240002078C0061FD5EA786069FF2381180133F2
:10525000994215D83D494018291D00F09FFFE97873
:10526000606940186061E168814201D1FFF754FF35
:10527000E1686069884206D9052002E00720DDE781
:105280000720FFF7E5FB002070BD0820F9E708B50F
:105290008878002806D048686946FFF7FAFC00982D
:1052A000FFF762FD002008BD10B5887800280ED0F9
:1052B000244A49689160107802280AD0032808D04F
:1052C000122804D0132802D00820FFF7C1FB0020C9
:1052D00010BD52680006104301F084FAFFF744FD48
:1052E000F5E770B588780D4600281DD0A8880028FD
:1052F00005D0144C2178CA0603D4820701D00520BA
:105300000EE0142910D2C90605D4502807D8FFF79B
:1053100075FBA88807E0FF210131884203D90720E7
:10532000FFF796FB00E0E060002070BDFEB51C4674
:10533000089B0526064D6F4668C71346224600F0B7
:1053400028F8FEBD00830020B483002004840020E0
:10535000546F0020FFB583B01E4F002401AEA000A3
:1053600000963D5803A80FC8A84700280ED0641C1B
:10537000072CF4D3174C241F2068002803D003AD5A
:105380000FCD2468A047002007B0F0BD6846007923
:10539000FAE7F8B5089C9C46079D0346002C16D0FA
:1053A000641E14D40C4FE600AE5B9E4201D0BE4298
:1053B0000BD1E3005B195C68002C08D013466246F1
:1053C000A047069908700020F8BD641EEBD50120A7
:1053D000F8BD0000806F0020FFFF000010B5052021
:1053E00000070089000608D501208007006B000433
:1053F00003D400F0EBFEC00701D0002010BD012057
:1054000010BD70477047000070B50D460446FFF7A9
:10541000E5FF002807D06E482A46201880B23221C6
:1054200001F0AEF870BDFBF74DFB69483222042352
:105430001146801E00F06CFF4580047000F06EFF86
:1054400070BDF8B5634C069D06190024002E26D0C9
:10545000012E0BD0604B1A46283A022E0AD05D4925
:10546000C91E41180A292BD30120F8BD00F086F887
:1054700028703AE00878461E092E0ED88000001FDA
:105480001058564FB8422FD1B0001B5813504A88BD
:1054900008781146FFF7B8FF26E000BE24E04A88EE
:1054A000002A0BD04E48824200D300BE08784849FB
:1054B000401880B2322101F063F815E000BEF5E734
:1054C0004449891E4018C0B2411E09290BD88600E4
:1054D000B1188039C86F002806D0CC67F118803920
:1054E000CC67804700E000BE2C700020F8BD0A4663
:1054F000010010B53A480ED0814200D300BE364BB1
:105500000020283B84001C59002C06D0401C0A288F
:10551000F8DB002010BD00BEF1E784001A51401CEA
:105520000406240EF5D02046FFF76EFF204610BD7E
:1055300070B50446401E09281ED82748A100283807
:105540000D18803DE86F002814D0264EB04211D0CF
:105550001F483221201880B200F0E6FE1C4832229B
:1055600004231146401EEE6700F0D2FE047000F0E6
:10557000D5FE70BD00BE70BD00BE70BD10B5087810
:105580000C46411E09291FD882001348121F2838D3
:105590008258144B9A4205D100228900425028308B
:1055A000425012E0890040580C4988420DD1322205
:1055B00004231146064800F0ABFE21780170618893
:1055C000418000F0ABFE00E000BE002010BD0000F6
:1055D00003C80000FF37FFFF54830020055400205C
:1055E000307500000354002070B5934D8400295994
:1055F000002915D101021E23322290480E3100F0FD
:1056000087FE01210170417028510322827000221F
:10561000C270017102721022427104228271C17142
:10562000285970BD10B5040000D000BEFFF7DCFFA4
:1056300000F074FE0020804AA100505010BD70B5EB
:105640007D4D84002D1D2959002901D0084670BDCB
:1056500001021E23322279480E3100F059FE042146
:10566000017001214170285170BDF7B51746040043
:1056700000D000BEFFF7E3FF6F4D0646A4002D1DCE
:1056800028591021801C01F041F828593A46801C05
:10569000019900F083FD304600F040FE00202851C3
:1056A000FEBD70B5644D044686000835A859002833
:1056B00017D121021E23322260480E3100F028FE4D
:1056C0000621017001214170A8512046FFF72AF8F8
:1056D0004C2044435A4810222118A859801C00F03D
:1056E0005DFDA85970BD10B5040000D000BEFFF7E5
:1056F000D8FF00F013FE504A0020A100083250509D
:1057000010BD70B54C4D84000C352959002901D0CD
:10571000084670BD01021E23322248480E3100F0B7
:10572000F7FD0721017001214170285170BD10B5AE
:10573000040000D000BEFFF7E4FF00F0EFFD3E4A9A
:105740000020A1000C32505010BD70B5040000D0F4
:1057500000BEFFF7D6FF05464C20444338484121A0
:105760002418085D2877208D68822146284620313C
:105770000822143000F012FD214610311022A81C1E
:1057800000F00CFD70BD70B52B4D8400103529590B
:10579000002901D0084670BD010228481223322298
:1057A000001D0E3100F0B4FD285170BD10B504008D
:1057B00000D000BEFFF7E7FF00F0B0FD1E4A00205A
:1057C000A1001032505010BD70B50D464C21484319
:1057D0001B4944184920005DC0070DD020462030E9
:1057E0000822A91C00F0D4FC002805D1208D2988AE
:1057F000884201D1012070BD002070BD10B50400A9
:1058000000D000BEFFF7BFFF012101704C214C43C7
:105810000B4941226118525C42741022401C103125
:1058200000F0BCFC10BD10B5002800D000BEFFF792
:10583000AAFF0021017010BD7C83002014380000F5
:10584000AE82002010B5372110233222880200F0EA
:105850005FFD0021144A03E0372B0DD0491CC9B26B
:105860001C234B43D35CFF2BF6D1002141608160A8
:10587000818100F053FD10BD1C2359438918097A1A
:105880000170F2E770B5054604233222372107483C
:1058900000F03EFD044605803720FEF711FEA070A3
:1058A000204600F03BFD70BDAC6F002002DC000024
:1058B00010B510460C4600F007FD012809D1322230
:1058C00001231146900200F023FD2178017000F0C1
:1058D00025FD002010BD00207047FEB51C46089B2A
:1058E0000226044D6F4668C713462246FFF751FD56
:1058F000FEBD00009C6F002070B51049049C41184B
:10590000052901D3012070BD00F00FF80025002803
:1059100007DB0B4A81005058002803D055508047C0
:1059200000E000BE2570002070BD04494018052825
:1059300001D240B270470020C0437047F237FFFFEA
:105940009883002070B54F4800238168DB4300290D
:1059500001D0194600E00121CA178C0F92002243A2
:105960008C00816048490D684E682C4332430C60BE
:105970004A60C268002A01D01C4600E00124E217F8
:10598000650FD2002A43C4600D68E4004E682C43C2
:1059900032430C604A600268002A01D01A4600E0D7
:1059A000012202600D68D4174E682A4334430A600E
:1059B0004C60826A002A00D101238362D8171A0C36
:1059C000000410430C681A044B68224318430A6011
:1059D000486070BDF8B5032601253602082332461B
:1059E000032102200095FCF7B6FB00240723324672
:1059F000214602200094FCF7AEFB06233246092123
:105A000002200094FCF7A7FB0523002204210220BA
:105A10000094FCF7A0FB0022092302211046009409
:105A2000FCF799FB00220A23032110460094FCF79F
:105A300092FB00233246194618460095FCF78BFB73
:105A400000233246194601200094FCF784FBF8BD80
:105A500010B505242407208A022188432082A08AC9
:105A60000007FCD509484188FF22013211434180DB
:105A7000FBF7BEFAFFF7AEFF608A20210843608281
:105A800010BD000008800020008000202000005091
:105A900010B500F067F9FEF7B7FA10BD10B5FEF7C4
:105AA00080FC10BD10B57A4C2078FEF7DDFC00209C
:105AB000A07010BD10B57648002181707548052290
:105AC0000270FF224270CD228270AB22C27001713F
:105AD0004171FEF777FA10BD10B50446032102208C
:105AE000FCF77FFE401C04D1FF2101314802FCF786
:105AF00029FD002C01D1FCF75FFE10BD70B57D20A3
:105B00006549C000FFF7F3FC61494870FEF79EFC51
:105B100060494A790B7912021A43521C92B20A71F7
:105B2000130A4B715D4B9A4202D100220A714A71ED
:105B30000446C07C1C23574906221B1A062B08DB8F
:105B400023461433C01800F029FBE07C801DE0746C
:105B50000FE025462035287C1F231B1A062B07DB68
:105B60003134001900F01AFB287C801D287400E0F5
:105B700000BEFEF76CFCFAF793FF002000F052FA2B
:105B8000FAF76CFF70BD70B50C4605460C20444911
:105B9000684340188078FF281CD03D4E35707078DF
:105BA000FFF7C6FCFAF77CFF012000F03BFAFAF79A
:105BB00055FF60880838092805D2A088002802D13E
:105BC000E0887D2808D07D203649C000FFF78FFC93
:105BD000B07001E0FFF792FF21462846FEF7FDF97D
:105BE00070BD442800D189E7704770B5322000F0BD
